:020000040800F2
:10000000FFFF012089010008D5010008D501000883
:10001000D5010008D5010008D50100080000000046
:10002000000000000000000000000000A918000807
:10003000D501000800000000611A0008C11A00087C
:10004000D5010008D5010008D5010008D501000838
:10005000D5010008D5010008D5010008D501000828
:10006000D5010008D5010008D5010008D501000818
:10007000D5010008D5010008D5010008D501000808
:10008000D5010008C10B0008D5010008D501000802
:10009000D5010008D5010008D5010008D5010008E8
:1000A000D5010008D5010008D5010008D5010008D8
:1000B000D5010008D5010008D5010008D5010008C8
:1000C000D5010008D5010008D5010008D5010008B8
:1000D000D5010008D5010008D5010008D5010008A8
:1000E000D5010008D5010008D5010008D501000898
:1000F000D5010008D5010008D5010008D501000888
:10010000D5010008D5010008D5010008D501000877
:10011000D5010008D5010008D5010008D501000867
:10012000D5010008D5010008D5010008D501000857
:10013000D5010008D5010008D5010008D501000847
:10014000D5010008D5010008D5010008D501000837
:10015000D5010008D5010008D5010008D501000827
:10016000D5010008D5010008D5010008D501000817
:10017000D5010008D5010008D501000800000000E5
:08018000D5010008D5010008BB
:10018800DFF830D0002103E00B4B5B5843500431BB
:100198000A480B4B42189A42F6D30A4A02E0002357
:1001A80042F8043B084B9A42F9D300F011F800F0EA
:1001B800E1FA7047FFFF0120C83100080000002065
:1001C8001C0000201C00002024360120FEE700004F
:1001D80080B500AF114A114B1B6843F0010313604F
:1001E8000E4B00229A600D4A0C4B1B6823F0847357
:1001F80023F480331360094B094A5A60074A074BB6
:100208001B6823F480231360044B0022DA6000F09B
:100218000BF8044B4FF000629A6080BD0038024032
:100228001030002400ED00E080B483B000AF00235C
:100238007B6000233B60414A404B1B6843F480339A
:1002480013603E4B1B6803F400333B607B6801334B
:100258007B603B68002B03D17B68B3F5A04FF0D1DE
:10026800364B1B6803F40033002B02D001233B609C
:1002780001E000233B603B68012B42D12F4A2F4B02
:100288001B6C43F0805313642D4A2D4B1B6843F4B9
:1002980040431360294A294B9B689360274A274BA0
:1002A8009B6843F400439360244A244B9B6843F4BF
:1002B800A0539360214B234A5A60204A1F4B1B6866
:1002C80043F08073136000BF1C4B1B6803F000737E
:1002D800002BF9D01C4B40F205621A60174A174BE5
:1002E8009B6823F003039360144A144B9B6843F004
:1002F8000203936000BF114B9B6803F00C03082BAB
:10030800F9D10E4A0D4B9B6823F4000393600B4B05
:100318000E4AC3F88420094A084B1B6843F08063DF
:10032800136000BF054B1B6803F00063002BF9D076
:100338000C37BD465DF8047B704700BF00380240AB
:100348000070004008544007003C02400030005054
:1003580080B584B000AF78603960386802F0D1FEAB
:10036800F86078683968FA6802F0D3FE03461846E0
:100378001037BD4680BD00BF80B485B000AF78603F
:100388007B6800221A607B6800225A607B68002222
:100398009A607B684FF46162DA600023FB600EE0CC
:1003A8007B68FA680632C82143F822107B68FA682D
:1003B8001E32C82143F82210FB680133FB60FB683A
:1003C800172BEDDD7B689B6C03F5FA627B689A64FA
:1003D8007B68D3F8A83003F5FA627B68C3F8A820D5
:1003E8007B6800221A611437BD465DF8047B7047AC
:1003F80080B582B000AF00237B60224B1B68184693
:1004080000214FF0FF32002301F07EFD1E4B5A6899
:100418001D4B1B689A4204DD1B4B5B68013B1A4A63
:100428005360194B5A68184B1B689A4204DA164BEA
:100438005B680133144A5360134B5B68B3F52F7F35
:1004480003DD114B4FF42F725A600F4B5B6813F5A5
:100458002F7F02DA0C4B0D4A5A600B4B9B680A4AF5
:10046800526802FB03F37A6813447B60054B1B68F0
:10047800184600210022002301F066FC192002F032
:1004880013F8BAE73C3501204035012044FDFFFF51
:1004980080B594B000AF3B1D184640211422AA4BEA
:1004A80000F00EFB3B1D1846A849FFF751FF034615
:1004B800002B18D13B1D04221A6000BF3B1D1846B3
:1004C800042100F0BBFA0346042BF7D13B1D01229F
:1004D8001A6000BF3B1D1846042100F0AFFA03461E
:1004E800042BF7D12CE13B1D18469949FFF730FF43
:1004F8000346002B53D10023BB64964B7B643B1D02
:10050800D8221A6000BF3B1D1846042100F096FA55
:100518000346042BF7D13B1D00221A6000BF3B1D88
:100528001846042100F08AFA0346042BF7D18A4BB7
:100538001B68184600214FF0FF32002301F0E4FC4D
:10054800BB6CC3F1D803FB64FB6C002B09D100BF63
:10055800814B1B68184600210022002301F0F4FBA0
:10056800EEE0FB6C402B01D94023FB643B1D184691
:10057800796CFA6C02F0B2FDBA6CFB6C1344BB6484
:100588007A6CFB6C13447B6400BF3B1D1846F96C06
:1005980000F054FA0246FB6C9A42F6D1D0E73B1DB4
:1005A80018466E49FFF7D4FE0346002B1AD16A4B52
:1005B8001B68184600214FF0FF32002301F0A4FC0D
:1005C800644B1B69002B04D1624B1B683233614AB0
:1005D8001360614B1B68184600210022002301F0BC
:1005E800B3FBADE03B1D18465D49FFF7B1FE03467E
:1005F800002B1AD1584B1B68184600214FF0FF32C8
:10060800002301F081FC534B1B69002B04D1514B93
:100618001B68323B4F4A13604F4B1B68184600213A
:100628000022002301F090FB8AE03B1D18464D494B
:10063800FFF78EFE0346002B1AD1474B1B6818465E
:1006480000214FF0FF32002301F05EFC414B1B6993
:10065800002B04D13F4B9B680A3B3E4A93603E4BBC
:100668001B68184600210022002301F06DFB67E09B
:100678003B1D18463C49FFF76BFE0346002B1AD179
:10068800354B1B68184600214FF0FF32002301F05C
:100698003BFC304B1B69002B04D12E4B9B680A3363
:1006A8002C4A93602C4B1B6818460021002200231B
:1006B80001F04AFB44E03B1D18462C49FFF748FE71
:1006C8000346002B1AD1244B1B68184600214FF013
:1006D800FF32002301F018FC1E4B01221A611D4B4A
:1006E80000221A601B4B00229A601B4B1B6818469D
:1006F80000210022002301F027FB21E03B1D1846C2
:100708001B49FFF725FE0346002B19D1124B1B6826
:10071800184600214FF0FF32002301F0F5FB0D4B86
:1007280000221A610B4B00221A600A4B00229A60C1
:10073800094B1B68184600210022002301F004FB26
:100748000A2001F0B1FEA6E6503100085431000835
:100758005C310008403501203C3501206431000837
:1007680074310008803100088C3100089831000885
:10077800A431000880B584B004AF4FF4407000F095
:1007880041FA00F09FF800F007FA00F0D1F8154898
:10079800FFF7F2FD012001F087FA0246124B1A60BA
:1007A8000023009300230193002302930023039363
:1007B8000E480F494FF48062002301F0A3FD002387
:1007C8000093002301930023029300230393094815
:1007D80009494FF48062002301F094FD01F0B6FE50
:1007E800FEE700BF403501203C3501209904000890
:1007F800B0310008F9030008BC31000880B483B0A8
:1008080000AF0346FB71084997F907305B09FA798D
:1008180002F01F02012000FA02F241F823200C37EF
:10082800BD465DF8047B704700E100E080B483B00A
:1008380000AF03463960FB7197F90730002B0BDADC
:100848000D49FB7903F00F03043B3A68D2B2120159
:10085800D2B20B441A7609E0084997F907303A688A
:10086800D2B21201D2B20B4483F800230C37BD4632
:100878005DF8047B704700BF00ED00E000E100E098
:1008880080B582B000AF78607B68013BB3F1807FB0
:1008980001D301230FE00A4A7B68013B53604FF004
:1008A800FF300F21FFF7C2FF054B00229A60044B6F
:1008B80007221A60002318460837BD4680BD00BFCE
:1008C80010E000E080B582B000AF01233B71002347
:1008D800BB710023FB7101237B7103233B60022062
:1008E800012100F07DFC3B460F48194600F0F8FA5C
:1008F80002233B710C233B600120012100F070FCB6
:100908000A480221072200F079FB08480321072240
:1009180000F074FB3B460548194600F0E1FA00BFB9
:100928000837BD4680BD00BF0004024000000240F9
:1009380080B594B000AF4FF4E1333B640023A7F8CF
:100948004C300C23A7F84A300023A7F8483000237E
:10095800A7F846300023A7F844304FF400300121AF
:1009680000F05CFC07F140032E48194600F074FCC7
:100978004FF480637B614FF000637B6000233B6131
:1009880000233B6302237B63274BFB600023BB638D
:1009980000237B624FF48063FB614FF48073BB627A
:1009A800224BBB600023FB6300233B620023BB6137
:1009B8000023FB624FF40010012100F011FC3B1DE5
:1009C8001B48194600F04CF916484021012200F056
:1009D8001FFD1748012100F099F900237B614FF0B2
:1009E80000637B6040233B61124BFB600023BB62CA
:1009F8003B1D1148194600F033F90A4880210122AD
:100A080000F006FD0C481021012200F0A9F9112080
:100A1800FFF7F4FE0348012100F0DAFC00BF50376D
:100A2800BD4680BD004400401C0000200444004036
:100A3800886002401C040020A060024080B582B09B
:100A480000AF786039601A4B1B78DBB2002B01D0FD
:100A5800002329E03B68B3F5806F01D9002323E028
:100A6800134B01221A70134879683A6802F036FB72
:100A7800114B3A6892B25A600F4B0E4ADA6000BFC7
:100A88000E4B1B889BB203F04003002BF8D00B4A97
:100A98000A4B1B889BB223F040039BB21380064885
:100AA800012100F033F93B6818460837BD4680BD80
:100AB8001C3601201C040020A060024000440040B5
:100AC80080B588B000AFF860B9607A603B600023F9
:100AD800FB610023FB742C4B1A687B681344BB61D1
:100AE8003BE02A4800F02EF903461A46284B1B889B
:100AF800C3F580639A4230D0FA68FB691A44244BE4
:100B08001B88591C88B2224908801946214B5B5C16
:100B180013701F4B1B88C3F309039AB21C4B1A802E
:100B28003B687B610DE0FA68FB6913441A787B69BE
:100B38001B789A4202D10123FB7406E07B690133DA
:100B48007B617B691B78002BEDD1FB690133FB616D
:100B58000D4B1A687B681344BB61FB7C002B09D1E1
:100B6800BB685A1EFB699A4204D9074B1A68BB69CD
:100B78009A42B6D3FA68FB69134400221A70FB69DB
:100B880018462037BD4680BD2036012088600240C7
:100B98001C0800201C00002080B500AF45F208208A
:100BA800FFF76EFE6FF0040000F03EF84FF0FF30E4
:100BB800FFF724FE00BF80BD80B500AF0748084995
:100BC80000F008F90346012B06D10448044900F057
:100BD80059F9044B00221A7000BF80BDA060024082
:100BE800008020201C36012080B400AF044B1B6815
:100BF8000133034A136000BFBD465DF8047B7047AC
:100C08002036012080B483B000AF7860054A7B6845
:100C180043F0BF6343F40033D3600C37BD465DF83F
:100C2800047B704700ED00E080B483B000AF7860CB
:100C38007B68042B06D1094A084B1B6843F0040360
:100C4800136005E0054A054B1B6823F00403136095
:100C58000C37BD465DF8047B704700BF10E000E02C
:100C680080B485B000AF786039600023FB607B6892
:100C78001B68FB60FA68244B1340FB603B681A68EA
:100C88003B68DB681A433B685B691A433B689B69AE
:100C98001A433B68DB691A433B681B6A1A433B6883
:100CA8005B6A1A433B689B6A1A433B685B6B1A434F
:100CB8003B689B6B1343FA681343FB607B68FA68D5
:100CC8001A607B685B69FB60FB6823F00703FB60C5
:100CD8003B68DA6A3B681B6B1343FA681343FB6093
:100CE8007B68FA685A613B681A697B685A603B6896
:100CF8005A687B689A603B689A687B68DA60143740
:100D0800BD465DF8047B70473F801CF080B483B01B
:100D180000AF78600B46FB70FB78002B06D07B6831
:100D28001B6843F001027B681A6005E07B681B685A
:100D380023F001027B681A600C37BD465DF8047B1E
:100D4800704700BF80B483B000AF78607B685B6891
:100D58009BB218460C37BD465DF8047B704700BF50
:100D680080B485B000AFF860B9601346FB71BB680A
:100D780003F08003002B0FD0FB79002B06D0FB6813
:100D88005B6943F08002FB685A6105E0FB685B69B8
:100D980023F08002FB685A61BB68802B14D0FB7972
:100DA800002B08D0FB681A68BB6803F01E031A43BF
:100DB800FB681A6008E0FB681A68BB6803F01E034A
:100DC800DB431A40FB681A601437BD465DF8047BA4
:100DD800704700BF80B487B000AF786039600023E7
:100DE800FB750023FB600023BB607B68224A9342AB
:100DF80002D8224B3B6101E0214B3B613B6823F069
:100E0800F02323F0C313002B0AD03B68DB0A03F05E
:100E18001E03FB607B681A68FB681340BB6004E034
:100E28007B685B6903F08003BB603B6803F0005399
:100E3800002B03D03B695B68FB6002E03B691B68E1
:100E4800FB60FB6823F0F02323F08213FB60FA6851
:100E58003B681340002B05D0BB68002B02D0012350
:100E6800FB7501E00023FB75FB7D18461C37BD466A
:100E78005DF8047B704700BF0F64024000600240C9
:100E88000064024080B485B000AF786039607B6848
:100E9800104A934202D8104BFB6001E00F4BFB60F5
:100EA8003B6803F00053002B07D03B6823F0F02386
:100EB80023F08213FA68D36006E03B6823F0F0233E
:100EC80023F08213FA6893601437BD465DF8047BFB
:100ED800704700BF0F640240006002400064024097
:100EE80080B487B000AF7860396000237B6100234D
:100EF8003B610023FB6000237B6176E07B69012274
:100F080002FA03F33B613B681A683B691340FB60D4
:100F1800FA683B699A4265D17B681A687B695B000D
:100F2800194603238B40DB431A407B681A607B68B1
:100F38001A683B681B7919467B695B0001FA03F361
:100F48001A437B681A603B681B79012B03D03B6806
:100F58001B79022B2ED17B689A687B695B00194646
:100F680003238B40DB431A407B689A607B689A684E
:100F78003B685B7919467B695B0001FA03F31A4306
:100F88007B689A607B685A687B699BB21946012323
:100F98008B40DB431A407B685A607B685B683A6821
:100FA800927911467A6992B201FA02F292B21A4320
:100FB8007B685A607B68DA687B699BB25B000321B7
:100FC80001FA03F3DB431A407B68DA607B68DA686E
:100FD8003B68DB7919467B695B0001FA03F31A4326
:100FE8007B68DA607B6901337B617B690F2B85D96C
:100FF8001C37BD465DF8047B704700BF80B485B0E0
:1010080000AF78600B467B8013467B700023FB6043
:101018000023BB607B787A8802F007029200934035
:10102800FB607B88DB089BB218467B88DB089BB299
:101038001A467B68083253F822207B8803F007039E
:101048009B0019460F238B40DB4302EA03017B68B0
:1010580000F1080243F822107B88DB089BB21A468D
:101068007B68083253F82220FB681343BB607B88F7
:10107800DB089BB21A467B680832B96843F822102D
:101088001437BD465DF8047B704700BF80B489B053
:1010980000AF78600023BB6100237B610023FB6104
:1010A80002233B610023FB600223BB60484B9B6823
:1010B80003F00C03BB61BB69042B07D0082B09D0D4
:1010C800002B3FD17B68434A1A603FE07B68424A65
:1010D8001A603BE03E4B5B6803F480039B0DFB60AA
:1010E8003B4B5B6803F03F03BB60FB68002B0DD0F4
:1010F800394ABB68B2FBF3F2354B596847F6C073FF
:101108000B409B0903FB02F3FB610CE0314ABB680F
:10111800B2FBF3F22E4B596847F6C0730B409B099C
:1011280003FB02F3FB612A4B5B6803F440331B0C9F
:1011380001335B003B61FA693B69B2FBF3F27B6800
:101148001A6003E07B68234A1A6000BF204B9B6843
:1011580003F0F003BB61BB691B09BB611F4ABB6994
:1011680013441B78DBB27B617B681A687B69DA40C1
:101178007B685A60164B9B6803F4E053BB61BB69FC
:101188009B0ABB61154ABB6913441B78DBB27B61C0
:101198007B685A687B69DA407B689A600C4B9B686D
:1011A80003F46043BB61BB695B0BBB610B4ABB6962
:1011B80013441B78DBB27B617B685A687B69DA4031
:1011C8007B68DA602437BD465DF8047B704700BF52
:1011D800003802400024F40000127A0004000020C5
:1011E80080B483B000AF78600B46FB70FB78002BAF
:1011F80006D00949084B1A6B7B6813430B6306E05A
:101208000549054B1A6B7B68DB4313400B630C37AE
:10121800BD465DF8047B70470038024080B483B057
:1012280000AF78600B46FB70FB78002B06D00949AD
:10123800084B1A6C7B6813430B6406E00549054BA1
:101248001A6C7B68DB4313400B640C37BD465DF8B2
:10125800047B70470038024080B58AB000AF7860E0
:10126800396000237B6200233B620023FB6100237B
:10127800BB617B681B8A9BB27B627B6A23F4405309
:101288007B623B68DB881A467B6A13437B627B6A16
:101298009AB27B681A827B689B899BB27B627B6A65
:1012A80023F4B05323F00C037B623B689A883B68B5
:1012B8001B8913439AB23B685B8913439BB21A4656
:1012C8007B6A13437B627B6A9AB27B689A817B68EC
:1012D8009B8A9BB27B627B6A23F440737B623B6888
:1012E8009B891A467B6A13437B627B6A9AB27B6846
:1012F8009A8207F108031846FFF7C8FE7B68314A4F
:10130800934203D07B68304A934202D17B693B62A7
:1013180001E03B693B627B689B899BB29BB21BB235
:10132800002B0CDA3A6A13469B0013449A001A44BD
:101338003B681B685B00B2FBF3F3FB610BE03A6AA6
:1013480013469B0013449A001A443B681B689B0091
:10135800B2FBF3F3FB61FB691C4AA2FB03235B09A5
:101368001B017B627B6A1B09642202FB03F3FA6997
:10137800D31ABB617B689B899BB29BB21BB2002BC3
:101388000CDABB69DB003233104AA2FB03235B098A
:1013980003F007037A6A13437B620BE0BB691B0106
:1013A80032330A4AA2FB03235B0903F00F037A6A6C
:1013B80013437B627B6A9AB27B681A812837BD46E1
:1013C80080BD00BF00100140001401401F85EB5193
:1013D80080B483B000AF78600B46FB70FB78002BBD
:1013E80008D07B689B899BB243F400539AB27B6810
:1013F8009A8107E07B689B899BB223F400539AB2D9
:101408007B689A810C37BD465DF8047B704700BF46
:1014180080B483B000AF78600B467B8013467B7046
:101428007B78002B08D07B689B8A9AB27B88134311
:101438009AB27B689A8209E07B689B8A9AB27B8819
:10144800DB439BB213409AB27B689A820C37BD4645
:101458005DF8047B704700BF80B58AB000AF786044
:101468000023FB6101F0B2F8574B1B68002B01D138
:1014780000F00CF9554B1A687B681340002B40F0BC
:101488008C807B68002B1CD008227B6813447B600F
:101498007B6803F00703002B13D07B6823F0070356
:1014A80008337B607B6803F00703002B09D04FF0FB
:1014B800500383F31188BFF36F8FBFF34F8F7B61A6
:1014C800FEE77B68002B68D0414B1B687A689A421C
:1014D80063D8404B3B623F4B1B687B6204E07B6AEE
:1014E8003B627B6A1B687B627B6A5A687B689A42AC
:1014F80003D27B6A1B68002BF1D1334B1B687A6AD5
:101508009A424AD03B6A1B6808221344FB617B6AF3
:101518001A683B6A1A607B6A5A687B68D21A082381
:101528005B009A421ED97A6A7B681344BB61BB6927
:1015380003F00703002B09D04FF0500383F3118801
:10154800BFF36F8FBFF34F8F3B61FEE77B6A5A682B
:101558007B68D21ABB695A607B6A7A685A60B86934
:1015680000F0F6F81A4B1A687B6A5B68D31A184AB7
:101578001360174B1A68184B1B689A4203D2144B16
:101588001B68154A13607B6A5A68104B1B681A431C
:101598007B6A5A607B6A00221A6001F025F8FB69B1
:1015A80003F00703002B09D04FF0500383F3118891
:1015B800BFF36F8FBFF34F8FFB60FEE7FB691846E1
:1015C8002837BD4680BD00BF2834012034340120AF
:1015D8002C340120203401203034012080B586B01D
:1015E80000AF78607B687B617B68002B46D008235E
:1015F8005B427A6913447B617B693B613B695A684A
:10160800204B1B681340002B09D14FF0500383F384
:101618001188BFF36F8FBFF34F8FFB60FEE73B6905
:101628001B68002B09D04FF0500383F31188BFF3D8
:101638006F8FBFF34F8FBB60FEE73B695A68114B52
:101648001B681340002B19D03B691B68002B15D170
:101658003B695A680B4B1B68DB431A403B695A606D
:1016680000F0B4FF3B695A68074B1B681344064AED
:101678001360386900F06CF800F0B6FF1837BD4603
:1016880080BD00BF343401202C34012080B485B0E3
:1016980000AF4FF49633BB60274BFB60FB6803F049
:1016A8000703002B0CD0FB680733FB60FB6823F0B3
:1016B8000703FB60BA68FB68D31A1F4A1344BB6070
:1016C800FB687B601D4A7B6813601C4B00225A60D4
:1016D8007A68BB681344FB600822FB689B1AFB60AE
:1016E800FB6823F00703FB60FB68154A1360144B83
:1016F8001B6800225A60124B1B6800221A607B6824
:101708003B603B68FA68D21A3B685A600C4B1A680F
:101718003B681A603B685B680A4A13603B685B6811
:10172800094A1360094B4FF000421A601437BD464E
:101738005DF8047B704700BF20080020203401209A
:1017480028340120303401202C3401203434012085
:1017580080B485B000AF7860274BFB6002E0FB687F
:101768001B68FB60FB681A687B689A42F7D3FB68C2
:10177800BB60FB685B68BA681A447B689A4208D108
:10178800FB685A687B685B681A44FB685A60FB68A8
:101798007B607B68BB607B685B68BA681A44FB68DF
:1017A8001B689A4218D1FB681A68144B1B689A4246
:1017B8000DD07B685A68FB681B685B681A447B68B5
:1017C8005A60FB681B681A687B681A6008E00B4B54
:1017D8001A687B681A6003E0FB681A687B681A60FD
:1017E800FA687B689A4202D0FB687A681A601437F4
:1017F800BD465DF8047B7047203401202834012061
:1018080080B485B000AFF860B9607A60FB68043BCB
:10181800FB60FB684FF080721A60FB68043BFB605A
:10182800BA68FB681A60FB68043BFB600C4AFB68FB
:101838001A60FB68143BFB607A68FB681A60FB68F7
:10184800043BFB60FB686FF002021A60FB68203BF8
:10185800FB60FB6818461437BD465DF8047B70478B
:101868006D18000880B483B000AF0C4B1B68B3F14F
:10187800FF3F09D04FF0500383F31188BFF36F8FF8
:10188800BFF34F8F7B60FEE74FF0500383F311885F
:10189800BFF36F8FBFF34F8F3B60FEE7140000204C
:1018A800064B19680868B0E8F04F80F30988BFF361
:1018B8006F8F4FF0000080F311887047403401208B
:1018C80006480068006880F3088862B661B6BFF30E
:1018D8004F8FBFF36F8F00DF00BF000008ED00E0FF
:1018E80080B584B000AF2C4BFB60FB681B78DBB283
:1018F800BB60FB68FF221A70FB681B78DBB2FB71C8
:10190800FB79DBB203F05003DAB2244B1A70244B94
:1019180007221A6009E0224B1B68013B204A13602A
:10192800FB79DBB25B00DBB2FB71FB79DBB2DBB2CC
:101938005BB2002BEFDB1A4B1B681B02184A1360C3
:10194800174B1B6803F4E063154A1360BB68DAB2EF
:10195800FB681A70134A134B1B6843F47003136037
:10196800104A104B1B6843F07043136000F0C6F830
:101978000D4B00221A6000F0DBF80C4A0B4B1B6879
:1019880043F040431360FFF79BFFFFF76BFF002313
:1019980018461037BD4680BD00E400E03834012009
:1019A8003C34012020ED00E01400002034EF00E07A
:1019B80080B483B000AF4FF0500383F31188BFF3B6
:1019C8006F8FBFF34F8F7B600E4B1B6801330D4A3F
:1019D80013600C4B1B68012B0ED10B4B1B68DBB241
:1019E800002B09D04FF0500383F31188BFF36F8F9A
:1019F800BFF34F8F3B60FEE70C37BD465DF8047BB5
:101A0800704700BF1400002004ED00E080B483B0EC
:101A180000AF104B1B68002B09D14FF0500383F324
:101A28001188BFF36F8FBFF34F8F7B60FEE7094BC1
:101A38001B68013B074A1360064B1B68002B04D147
:101A480000233B603B6883F311880C37BD465DF883
:101A5800047B704714000020EFF30980BFF36F8FF9
:101A6800144B1A681EF0100F08BF20ED108A20E9E9
:101A7800F04F10604DF8043D4FF0500080F311888E
:101A8800BFF34F8FBFF36F8F00F00CFF4FF00000D4
:101A980080F3118808BC19680868B0E8F04F1EF098
:101AA800100F08BFB0EC108A80F30988BFF36F8F5E
:101AB800704700BF4034012080B584B000AFEFF319
:101AC80011824FF0500383F31188BFF36F8FBFF378
:101AD8004F8FFA60BB6000F01DFE0346002B03D059
:101AE800054B4FF080521A6000237B607B6883F3BC
:101AF80011881037BD4680BD04ED00E080B400AF0A
:101B0800074A084B1B680849A1FB03139B09013BC3
:101B18001360064B07221A60BD465DF8047B7047C8
:101B280014E000E000000020D34D621010E000E057
:101B3800DFF80C00016841F4700101607047000093
:101B480088ED00E080B483B000AF78607B6803F173
:101B580008027B685A607B684FF0FF329A607B68A6
:101B680003F108027B68DA607B6803F108027B688E
:101B78001A617B6800221A600C37BD465DF8047B49
:101B8800704700BF80B483B000AF78607B680022E4
:101B98001A610C37BD465DF8047B704780B485B088
:101BA80000AF786039607B685B68FB603B68FA6807
:101BB8005A60FB689A683B689A60FB689B683A6859
:101BC8005A60FB683A689A603B687A681A617B6871
:101BD8001B685A1C7B681A601437BD465DF8047B85
:101BE800704700BF80B485B000AF786039603B684B
:101BF8001B68BB60BB68B3F1FF3F03D17B681B69FF
:101C0800FB600CE07B680833FB6002E0FB685B6804
:101C1800FB60FB685B681A68BB689A42F6D9FB6888
:101C28005A683B685A603B685B683A689A603B68E8
:101C3800FA689A60FB683A685A603B687A681A6181
:101C48007B681B685A1C7B681A601437BD465DF8B0
:101C5800047B704780B485B000AF78607B681B69EF
:101C6800FB607B685B687A6892689A607B689B68AF
:101C78007A6852685A60FB685A687B689A4203D14E
:101C88007B689A68FB685A607B6800221A61FB6867
:101C98001B685A1EFB681A60FB681B6818461437D5
:101CA800BD465DF8047B704780B584B000AF03463D
:101CB800FB715420FFF7D0FBF860FB68002B30D095
:101CC800FB6800225A60FB6800221A60FB68002249
:101CD8009A60FB680022DA60FB6800229A63FB685E
:101CE8000122DA63FB6800221A64FB684FF0FF32B6
:101CF8005A64FB684FF0FF329A64FB68FA7983F8FC
:101D08005020FB6810331846FFF71CFFFB6824338C
:101D18001846FFF717FFF86800210022002300F09B
:101D280013F8FB68002B09D14FF0500383F3118897
:101D3800BFF36F8FBFF34F8FBB60FEE7FB6818469A
:101D48001037BD4680BD00BF80B58CB000AFF860CD
:101D5800B9607A603B600023FB62FB68BB62BB6AC8
:101D6800002B09D14FF0500383F31188BFF36F8F15
:101D7800BFF34F8F3B62FEE7BB68002B03D1BB6A02
:101D88001B6C002B01D1012300E00023002B09D19B
:101D98004FF0500383F31188BFF36F8FBFF34F8F5A
:101DA800FB61FEE73B68022B03D1BB6ADB6B012BAF
:101DB80001D1012300E00023002B09D14FF050038B
:101DC80083F31188BFF36F8FBFF34F8FBB61FEE7BB
:101DD800FFF7EEFDBB6A9A6BBB6ADB6B9A4202D3D4
:101DE8003B68022B29D1B86AB9683A6800F07CF9D7
:101DF8007862BB6A5B6A002B10D0BB6A2433184632
:101E080000F0F8FD0346012B13D13E4B4FF08052F2
:101E18001A60BFF34F8FBFF36F8F0AE07B6A002B06
:101E280007D0384B4FF080521A60BFF34F8FBFF383
:101E38006F8FFFF7EBFD01235FE07B68002B03D179
:101E4800FFF7E4FD002358E0FB6A002B06D107F1F9
:101E58001003184600F032FE0123FB62FFF7D6FD9F
:101E680000F0B4FBFFF7A4FDBB6A5B6CB3F1FF3F66
:101E780002D1BB6A00225A64BB6A9B6CB3F1FF3F74
:101E880002D1BB6A00229A64FFF7C0FD07F1100275
:101E98003B1D1046194600F033FE0346002B24D1A3
:101EA800B86A00F017FA0346002B18D0BB6A03F192
:101EB80010027B681046194600F04EFDB86A00F023
:101EC800A7F900F091FB0346002B15D10D4B4FF0FD
:101ED80080521A60BFF34F8FBFF36F8F0CE0B86A60
:101EE80000F096F900F080FB72E7B86A00F090F90C
:101EF80000F07AFB002300E06AE718463037BD4659
:101F080080BD00BF04ED00E080B58CB000AFF86084
:101F1800B9607A603B600023FB62FB68BB62BB6A06
:101F2800002B09D14FF0500383F31188BFF36F8F53
:101F3800BFF34F8F3B62FEE7BB68002B03D1BB6A40
:101F48001B6C002B01D1012300E00023002B09D1D9
:101F58004FF0500383F31188BFF36F8FBFF34F8F98
:101F6800FB61FEE7FFF724FDBB6A9B6B002B47D0A4
:101F7800BB6ADB687B62B86AB96800F023F93B6822
:101F8800002B22D1BB6A9B6B5A1EBB6A9A63BB6A41
:101F98001B68002B04D101F08DF80246BB6A5A6019
:101FA800BB6A1B69002B27D0BB6A1033184600F0A8
:101FB80021FD0346012B1FD14A4B4FF080521A6076
:101FC800BFF34F8FBFF36F8F16E0BB6A7A6ADA6090
:101FD800BB6A5B6A002B0FD0BB6A2433184600F03B
:101FE80009FD0346002B07D03E4B4FF080521A6084
:101FF800BFF34F8FBFF36F8FFFF708FD01236CE02E
:102008007B68002B03D1FFF701FD002365E0FB6A25
:10201800002B06D107F11403184600F04FFD0123E9
:10202800FB62FFF7F3FC00F0D1FAFFF7C1FCBB6AD3
:102038005B6CB3F1FF3F02D1BB6A00225A64BB6AF2
:102048009B6CB3F1FF3F02D1BB6A00229A64FFF791
:10205800DDFC07F114023B1D1046194600F050FD47
:102068000346002B31D1B86A00F01EF90346002B55
:1020780025D0BB6A1B68002B08D1FFF799FCBB6A07
:102088005B68184600F02AFFFFF7C0FCBB6A03F143
:1020980024027B681046194600F05EFCB86A00F01E
:1020A800B7F800F0A1FA0346002B15D10D4B4FF0FD
:1020B80080521A60BFF34F8FBFF36F8F0CE0B86A7E
:1020C80000F0A6F800F090FA4CE7B86A00F0A0F823
:1020D80000F08AFA002300E044E718463037BD468E
:1020E80080BD00BF04ED00E080B586B000AFF860A9
:1020F800B9607A6000237B61FB681B6C002B0DD1F3
:10210800FB681B68002B52D1FB685B68184600F01F
:102118005DFF7861FB6800225A6048E07B68002B0D
:102128001AD1FB689A68FB681B6C1046B9681A4696
:1021380000F0D4FFFB689A68FB681B6C1A44FB68C4
:102148009A60FB689A68FB685B689A422FD3FB68C1
:102158001A68FB689A602AE0FB68DA68FB681B6CFF
:102168001046B9681A4600F0B9FFFB68DA68FB68E0
:102178001B6C5B421A44FB68DA60FB68DA68FB6830
:102188001B689A4207D2FB685A68FB681B6C5B4263
:102198001A44FB68DA607B68022B08D1FB689B6BEA
:1021A800002B04D0FB689B6B5A1EFB689A63FB6884
:1021B8009B6B5A1CFB689A637B6918461837BD46A7
:1021C80080BD00BF80B582B000AF786039607B68A1
:1021D8001B6C002B19D07B68DA687B681B6C1A446F
:1021E8007B68DA607B68DA687B685B689A4203D34D
:1021F8007B681A687B68DA607B68DA687B681B6CC6
:10220800386811461A4600F069FF0837BD4680BD98
:1022180080B582B000AF7860FFF7CAFB14E07B6836
:102228005B6A002B0AD07B682433184600F0E2FB77
:102238000346002B03D000F0C1FC00E008E07B68F7
:102248009B6C5A1E7B689A647B689B6C002BE6DC4F
:102258007B684FF0FF329A64FFF7D8FBFFF7A8FBC3
:1022680014E07B681B69002B0FD07B68103318467D
:1022780000F0C0FB0346002B01D000F09FFC7B68F8
:102288005B6C5A1E7B685A6400E003E07B685B6CF9
:10229800002BE6DC7B684FF0FF325A64FFF7B6FB91
:1022A8000837BD4680BD00BF80B584B000AF7860F8
:1022B800FFF77EFB7B689B6B002B02D10123FB6041
:1022C80001E00023FB60FFF7A1FBFB68184610370D
:1022D800BD4680BD80B584B000AF7860FFF768FB6D
:1022E8007B689A6B7B68DB6B9A4202D10123FB60A7
:1022F80001E00023FB60FFF789FBFB6818461037F5
:10230800BD4680BD80B58CB002AFF860B9603B6057
:102318001346FB80FB68002B09D14FF0500383F371
:102328001188BFF36F8FBFF34F8FBB61FEE73B6B25
:10233800042B09D94FF0500383F31188BFF36F8F33
:10234800BFF34F8F7B61FEE7FB881846B96B00F03F
:1023580059FD38623B6A002B7AD03B6A1A6BFB88BE
:1023680003F18043013B9B001344FB61FB6923F0AD
:102378000703FB61FB6903F00703002B09D04FF04B
:10238800500383F31188BFF36F8FBFF34F8F3B6107
:10239800FEE7FB880093386AB9683A6BFB6B00F07C
:1023A80031FCF869F9683A68FFF72AFA02463B6A8D
:1023B8001A607B6B002B02D07B6B3A6A1A60FFF7BE
:1023C800F7FA324B1B680133304A1360304B1B68F5
:1023D800002B09D12E4A3B6A13602C4B1B68012B3A
:1023E8000FD100F061FC0CE02A4B1B68002B08D1D0
:1023F800274B1B68DA6A3B6B9A4202D8244A3B6A2D
:102408001360254B1B680133234A1360224B1A685B
:102418003B6A1A643B6ADB6A1A46012303FA02F232
:102428001E4B1B6813431D4A13603B6ADA6A134646
:102438009B0013449B001A4A1A443B6A0433104613
:102448001946FFF7ABFB01237B62FFF7DFFA02E0D7
:102458004FF0FF337B627B6A012B11D10D4B1B6858
:10246800002B0DD00A4B1B68DA6A3B6B9A4207D2E5
:102478000C4B4FF080521A60BFF34F8FBFF36F8F32
:102488007B6A18462837BD4680BD00BF1835012035
:102498004034012024350120343501202035012025
:1024A8004434012004ED00E080B586B000AF7860C8
:1024B80000237B617B68002B2FD01F4B1B68002BF0
:1024C80009D04FF0500383F31188BFF36F8FBFF328
:1024D8004F8FFB60FEE700F079F8184B1A687B68AD
:1024E80013443B61164B1B6804331846FFF7B2FBD5
:1024F8000346002B0BD1124B1B68DB6A1A460123DB
:102508009340DA430F4B1B6813400E4A1360386937
:1025180000F042FC00F068F878617B69002B07D175
:10252800094B4FF080521A60BFF34F8FBFF36F8F84
:102538001837BD4680BD00BF383501201C35012045
:10254800403401202035012004ED00E080B588B03A
:1025580004AF002300930023019300230293002378
:1025680003931648164982220023FFF7CBFEF86032
:10257800FB68012B11D14FF0500383F31188BFF38F
:102588006F8FBFF34F8FBB600E4B01221A600E4B4B
:1025980000221A60FFF7A4F90CE0FB68002B09D1B0
:1025A8004FF0500383F31188BFF36F8FBFF34F8F42
:1025B8007B60FEE71037BD4680BD00BFDD2B0008FD
:1025C800C0310008243501201C35012080B400AF3B
:1025D800044B1B680133034A1360BD465DF8047B56
:1025E800704700BF3835012080B584B000AF0023A4
:1025F800FB603F4B1B68002B09D14FF0500383F35E
:102608001188BFF36F8FBFF34F8F7B60FEE7FFF733
:10261800CFF9374B1B68013B354A1360344B1B68B5
:10262800002B5DD1334B1B68002B59D030E0324B67
:10263800DB68DB68BB60BB6818331846FFF70AFB2A
:10264800BB6804331846FFF705FBBB68DB6A1A460C
:10265800012303FA02F2294B1B681343274A13602C
:10266800BB68DA6A13469B0013449B00244A1A4449
:10267800BB68043310461946FFF790FABB68DA6A5C
:10268800204B1B68DB6A9A4202D31F4B01221A6057
:10269800194B1B68002BCAD11C4B1B68002B11D08F
:1026A8000CE000F037F80346002B02D0164B01224D
:1026B8001A60164B1B68013B144A1360134B1B68C6
:1026C800002BEED1104B1B68012B09D10123FB60B5
:1026D8000F4B4FF080521A60BFF34F8FBFF36F8FCD
:1026E800FFF794F9FB6818461037BD4680BD00BF58
:1026F8003835012018350120D83401202035012033
:1027080044340120403401202C3501202835012093
:1027180004ED00E080B586B000AF00237B61564B26
:102728001B68002B40F09580544B1B680133534ABB
:102738001360524B1B683B613B69002B1FD1504B08
:102748001B681B68002B09D04FF0500383F31188D6
:10275800BFF36F8FBFF34F8F3B60FEE7484B1B689B
:10276800FB60484B1B68464A1360464AFB68136087
:10277800454B1B680133444A136000F08BFB434B05
:102788001B683A699A424FD33D4B1B681B68002B64
:1027980001D1012300E00023002B04D03B4B4FF074
:1027A800FF321A6040E0364B1B68DB68DB68BB60B1
:1027B800BB685B687B603A697B689A4203D2334A9C
:1027C8007B68136030E0BB6804331846FFF742FAB1
:1027D800BB689B6A002B04D0BB6818331846FFF708
:1027E80039FABB68DB6A1A46012303FA02F2284B5E
:1027F8001B681343264A1360BB68DA6A13469B00BA
:1028080013449B00234A1A44BB68043310461946F4
:10281800FFF7C4F9BB68DA6A1F4B1B68DB6A9A4288
:1028280001D301237B61AFE71B4B1B68DA6A1949A7
:1028380013469B0013449B000B441B68012B01D9D2
:1028480001237B61154B1B68002B09D1FEF7CCF9DE
:1028580006E0124B1B680133104A1360FEF7C4F9F7
:102868000F4B1B68002B01D001237B617B69184645
:102878001837BD4680BD00BF383501201C35012002
:10288800D0340120D4340120303501201800002034
:10289800203501204434012040340120283501200E
:1028A8002C35012080B487B000AF264B1B68002B65
:1028B80003D0254B01221A603EE0234B00221A6008
:1028C800224B1B68FB60FB68B3FA83F3FB72FB7A4D
:1028D800C3F11F037B611E497A6913469B001344A9
:1028E8009B000B441B68002B09D14FF0500383F366
:1028F8001188BFF36F8FBFF34F8F7B60FEE77A6954
:1029080013469B0013449B00114A13443B613B69E7
:102918005B685A683B695A603B695A683B69083387
:102928009A4204D13B695B685A683B695A603B69C3
:102938005B68DB68074A13601C37BD465DF8047B9B
:10294800704700BF383501202C3501202035012083
:10295800443401204034012080B584B000AF786051
:1029680039607B68002B09D14FF0500383F311883D
:10297800BFF36F8FBFF34F8FBB60FEE7194B1B6828
:10298800183378681946FFF72DF9164B1B6804337E
:102998001846FFF75FF90346002B0BD1114B1B6854
:1029A800DB6A1A4601239340DA430F4B1B68134036
:1029B8000D4A13603B68B3F1FF3F07D1094B1B6811
:1029C80004330A481946FFF7E9F807E0084B1A6884
:1029D8003B681344FB60F86800F0DEF91037BD4629
:1029E80080BD00BF4034012020350120043501207E
:1029F8001C35012080B586B000AF78607B68DB6845
:102A0800DB683B613B69002B09D14FF0500383F32E
:102A18001188BFF36F8FBFF34F8FFB60FEE73B69F1
:102A280018331846FFF716F91E4B1B68002B1ED1EA
:102A38003B6904331846FFF70DF93B69DB6A1A4610
:102A4800012303FA02F2184B1B681343164A13605A
:102A58003B69DA6A13469B0013449B00134A1A44E5
:102A68003B69043310461946FFF798F805E03B69BF
:102A780018330F481946FFF791F83B69DA6A0D4B8E
:102A88001B68DB6A9A4205D901237B610A4B012244
:102A98001A6001E000237B617B6918461837BD4640
:102AA80080BD00BF38350120203501204434012085
:102AB800D8340120403401202C35012080B485B061
:102AC80000AF78607B68002B09D14FF0500383F387
:102AD8001188BFF36F8FBFF34F8FFB60FEE7064B84
:102AE8001A687B681A60054B1A687B685A60143745
:102AF800BD465DF8047B7047303501201C35012048
:102B080080B586B000AF786039607B68002B09D14A
:102B18004FF0500383F31188BFF36F8FBFF34F8FCC
:102B2800FB60FEE73B68002B09D14FF0500383F3AD
:102B38001188BFF36F8FBFF34F8FBB60FEE7FEF7BF
:102B480037FF1C4B1B683B613B681B68B3F1FF3FB9
:102B580002D100237B6126E07B681A68164B1B684C
:102B68009A4207D07B685A683B699A4202D8012387
:102B78007B6118E07B685B683A69D21A3B681B681E
:102B88009A420ED23B681A687B6859683B69CB1A2F
:102B98001A443B681A607868FFF790FF00237B614E
:102BA80001E001237B61FEF731FF7B691846183786
:102BB800BD4680BD1C3501203035012080B400AFF2
:102BC800034B01221A60BD465DF8047B704700BFC5
:102BD8002C35012080B582B000AF786000F0A2F8F3
:102BE800064B1B68012B07D9054B4FF080521A6022
:102BF800BFF34F8FBFF36F8FF0E700BF443401205E
:102C080004ED00E080B586B000AFF860B9607A6086
:102C18003B6000237B6113E0BA687B691344197831
:102C2800FA687B69134430330A461A71BA687B69BB
:102C380013441B78002B00D105E07B6901337B61CD
:102C48007B69092BE8D9FB68002283F83D207B6863
:102C5800042B01D904237B60FB687A68DA62FB687D
:102C68007A689A64FB680022DA64FB6804331846C1
:102C7800FEF788FFFB6818331846FEF783FFFB68EA
:102C8800FA681A617B68C3F10502FB689A61FB6800
:102C9800FA685A62FB6800221A65FB68002283F80A
:102CA80054201837BD4680BD80B582B000AF0023E0
:102CB8007B600CE07A6813469B0013449B00114A22
:102CC80013441846FEF73EFF7B6801337B607B6840
:102CD800042BEFD90C48FEF735FF0C48FEF732FFFE
:102CE8000B48FEF72FFF0B48FEF72CFF0A48FEF7AC
:102CF80029FF0A4B044A1A60094B044A1A6008372C
:102D0800BD4680BD44340120A8340120BC340120D4
:102D1800D8340120EC34012004350120D0340120BE
:102D2800D434012080B582B000AF28E0FFF74EFC14
:102D3800164B1B68002B0CBF01230023DBB27B6002
:102D4800FFF752FC7B68002B19D1FEF731FE0F4BC1
:102D5800DB68DB683B603B6804331846FEF77AFFA4
:102D68000B4B1B68013B0A4A13600A4B1B68013B6B
:102D7800084A1360FEF74AFE386800F07BF8054BF6
:102D88001B68002BD2D10837BD4680BDEC3401202A
:102D9800183501200035012080B582B000AF786079
:102DA800134B1B687A685A60124B1B687A689A4200
:102DB80009D2114B1A680E4B1B680433104619468A
:102DC800FEF710FF10E00D4B1A68094B1B6804331F
:102DD80010461946FEF706FF094B1B687A689A42A7
:102DE80002D2074A7B6813600837BD4680BD00BF22
:102DF800403401201C350120D4340120D034012076
:102E08001800002080B584B000AF03463960FB800D
:102E18003B68002B06D1FB889B001846FEF71CFB7D
:102E2800034600E03B68BB60BB68002B0ED058200F
:102E3800FEF712FBF860FB68002B03D0FB68BA684A
:102E48001A6305E0B868FEF7C9FB01E00023FB60E0
:102E5800FB68002B08D0FB681A6BFB889B001046A8
:102E6800A5211A4600F045F9FB6818461037BD46FB
:102E780080BD00BF80B582B000AF78607B681B6BF7
:102E88001846FEF7ABFB7868FEF7A8FB0837BD4687
:102E980080BD00BF80B483B000AF0E4B1B681B68B9
:102EA800002B01D1012300E00023002B04D00A4BA2
:102EB8004FF0FF321A6008E0064B1B68DB68DB68DE
:102EC8007B607B685B68044A13600C37BD465DF81D
:102ED800047B7047D03401201800002080B584B0EE
:102EE80000AF78607B68FB607B68002B64D0FB6870
:102EF800DA6A334B1B68DB6A9A425DD2FB689B69CE
:102F0800002B06DB2E4B1B68DB6AC3F10502FB684E
:102F18009A61FB685969FB68DA6A13469B00134497
:102F28009B00284A1344994201D1012300E0002361
:102F3800002B3CD0FB6804331846FEF78BFE034693
:102F4800002B15D1FB68DA6A1E4913469B0013440F
:102F58009B000B441B68002B0AD1FB68DB6A1A46EE
:102F680001239340DA43184B1B681340164A136039
:102F7800134B1B68DA6AFB68DA62FB68DB6A1A467D
:102F8800012303FA02F2104B1B6813430E4A136025
:102F9800FB68DA6A13469B0013449B00094A1A44EB
:102FA800FB68043310461946FEF7F8FD04E0044BAD
:102FB8001B68DA6AFB68DA621037BD4680BD00BF5D
:102FC80040340120443401202035012080B586B0EA
:102FD80000AF78607B683B6100237B617B68002BD6
:102FE8005FD03B69DB6C002B09D14FF0500383F3B2
:102FF8001188BFF36F8FBFF34F8FFB60FEE73B690C
:10300800DB6C5A1E3B69DA643B69DA6A3B699B6C84
:103018009A4246D03B69DB6C002B42D13B690433B2
:103028001846FEF717FE0346002B15D13B69DA6AEE
:103038001E4913469B0013449B000B441B68002B3E
:103048000AD13B69DB6A1A4601239340DA43184BDD
:103058001B681340164A13603B699A6C3B69DA6235
:103068003B69DB6AC3F105023B699A613B69DB6A2C
:103078001A46012303FA02F20D4B1B6813430C4A4C
:1030880013603B69DA6A13469B0013449B00074AA6
:103098001A443B69043310461946FEF77FFD0123A5
:1030A8007B617B6918461837BD4680BD44340120D2
:1030B8002035012080B400AF074B1B68002B04D0DB
:1030C800054B1B68DA6C0132DA64034B1B6818463F
:1030D800BD465DF8047B70474034012010B5431E9F
:1030E8000A44914204D011F8014B03F8014FF8E764
:1030F80010BD02440346934202D003F8011BFAE7CD
:103108007047034613F8012B002AFBD1181A01381F
:10311800704770B5AAB1451E01396B7811F8014F97
:10312800A34205F1010606D16FF00104641B1444A3
:10313800E04202D11C46181B70BD3546002BECD16D
:08314800F8E7104670BD00001D
:103150000A00000048454C4C4F00000044415441D7
:1031600052455100434D445F414343454C45524114
:1031700054450000434D445F4252414B450000001E
:10318000434D445F4C45465400000000434D445FAE
:1031900052494748540000004D4F44455F41555443
:1031A0004F0000004D4F44455F4D414E55414C008E
:1031B000524F424F4E4155540000000053494D00BC
:0831C00049444C4500000000E9
:1031C800007A030A0000000001020304010203045C
:0C31D80006070809AAAAAAAAFFFFFFFF29
:040000050800018965
:00000001FF
